:020000040800F2
:1000000000100020110900086109000861090008BA
:1000100000000000000000000000000000000000E0
:10002000000000000000000000000000610900085E
:1000300000000000000000006109000861090008DC
:1000400061090008610900086109000861090008E8
:1000500061090008610900086109000861090008D8
:10006000000000006109000861090008610900083A
:1000700061090008610900086109000865020008BB
:10008000610900080000000000000000610900088C
:10009000000000006109000861090008610900080A
:1000A0000000000061090008000000003F01000896
:1000B0000000000000000000000000000000000040
:1000C00010B5064C2378002B07D1054B002B02D02E
:1000D000044800E000BF0123237010BD040000208D
:1000E00000000000F8090008044B10B5002B03D0F5
:1000F0000349044800E000BF10BDC04600000000F6
:1001000008000020F8090008002330B54C68426A56
:100110009C4205D9CC5C551C456201338454F5E7FB
:100120000023835430BD70470A78436AC254002AC2
:1001300003D0013343620131F6E7704770470F4B3C
:100140005A6F082A08D1D96E4A1C072A00D9CA1F3B
:10015000DA665A6F013A5A671800094A6430928C7D
:10016000196F92B24254196F4A1C072A00D9CA1F4C
:100170001A675A6F01325A677047C0462000002044
:10018000003801401721314B30B51A688A431A6094
:10019000112219680A431A602D4B2E495A680A40E9
:1001A0005A60A022596892030A435A608022196853
:1001B00052040A431A608022920419681142FCD04A
:1001C00003215A6808248A435A60022259680A4364
:1001D0005A605A682242FCD08022596992020A432E
:1001E0005A6180225969D2020A430121C0255A610D
:1001F000DA6919480A43DA610268AA4302604022B8
:1002000005682A438025026042682D02A2434260AD
:10021000124A15608022D20515688D4315601D694C
:100220000D431D611D698D431D610D4B9362D162AC
:1002300053690B435361D3680B43D36013680B437B
:1002400013604369A343436130BDC04600200240B0
:1002500000100240FFFFC2FF0004004800E100E080
:1002600080BB00000B4B7C331A88013292B21A809B
:10027000FA2219889200914205D300221A80064A78
:1002800013680133136080220121D20513698B4367
:100290001361704720000020A00000207047C04676
:1002A00002B4714649084900095C49008E4402BC09
:1002B0007047C04603460B437FD4002243088B425D
:1002C00074D303098B425FD3030A8B4244D3030BDD
:1002D0008B4228D3030C8B420DD3FF22090212BAA2
:1002E000030C8B4202D31212090265D0030B8B421E
:1002F00019D300E0090AC30B8B4201D3CB03C01A08
:100300005241830B8B4201D38B03C01A5241430BE2
:100310008B4201D34B03C01A5241030B8B4201D3D2
:100320000B03C01A5241C30A8B4201D3CB02C01A3D
:100330005241830A8B4201D38B02C01A5241430AB5
:100340008B4201D34B02C01A5241030A8B4201D3A4
:100350000B02C01A5241CDD2C3098B4201D3CB014B
:10036000C01A524183098B4201D38B01C01A5241FA
:1003700043098B4201D34B01C01A524103098B42FE
:1003800001D30B01C01A5241C3088B4201D3CB00E9
:10039000C01A524183088B4201D38B00C01A5241CC
:1003A00043088B4201D34B00C01A5241411A00D27C
:1003B00001465241104670475DE0CA0F00D04942E5
:1003C000031000D34042534000229C4603098B4255
:1003D0002DD3030A8B4212D3FC22890112BA030ADD
:1003E0008B420CD3890192118B4208D3890192115F
:1003F0008B4204D389013AD0921100E08909C309E4
:100400008B4201D3CB01C01A524183098B4201D3E5
:100410008B01C01A524143098B4201D34B01C01AD0
:10042000524103098B4201D30B01C01A5241C30848
:100430008B4201D3CB00C01A524183088B4201D3B7
:100440008B00C01A5241D9D243088B4201D34B00D2
:10045000C01A5241411A00D20146634652415B1014
:10046000104601D34042002B00D5494270476346F5
:100470005B1000D3404201B50020FFF70FFF02BD23
:100480000029F8D016E7704770B50025184C194EB2
:10049000631DDD77230034331D70230020004433B7
:1004A0001D70320025606560A560E56025612562EC
:1004B00025752563256425656565A565E5650E4992
:1004C000143000F04EFA200029002566082264301E
:1004D00000F080FA200065663200A566A567E56633
:1004E000064925677830656700F03BFA70BDC04665
:1004F0002000002000000020270100083D01000826
:100500008023F0B5D44DDB01AA69D44E1343AB610F
:100510006023D34A9BB0D3609023DB05196A314036
:1005200019628021186A4900014330201962196854
:100530008143196020211C68CA480C431C600424B4
:100540005F68A7435F601F6A07401F628027186AC1
:100550007F010743C0201F621F6887431F608027F9
:10056000186807431F6008275868B8435860106828
:100570000743176017683C431460146880272143C1
:100580001160012114683F050C431460B64C2760CC
:10059000B64CB6486434846704668024EF69A403CB
:1005A0002743EF61F0275D6ABD435D6240255F6AC6
:1005B0003D435D621D68AE4F3D401D60802518685B
:1005C0002D0305431D605D68AA4805405D60DD6838
:1005D00030202F408025DF60DF68ED023D43DD6085
:1005E0005D6A2E4080255E625E6AED0035435D6285
:1005F0001E68A14D2E401E601E6834431C605E685C
:100600009E4C26405E60DE683540DD608025DE68F9
:100610006D033543DD609A4B1D688D431D601D6978
:100620002D012D091D6180251E696D053543FF26AD
:100630001D611D69B5431D61C7251E6935431D61D7
:100640001D69904E35401D6180251E69ED033543BF
:100650001D611D68294319605968890A890259601A
:10066000596808435860596887480C405C6059686D
:100670000140596080215C68490221435960802112
:100680005C68890121435960029242210200986905
:100690000842FCD0052199623B3198690842FCD0A0
:1006A00080215868C9010843586058680842FCD145
:1006B0002021D869754C0143D9618021586809020D
:1006C0002040586098690842FCD12020D96908432D
:1006D000D861596821405960802109029869040055
:1006E0000C4001940842F9D180215868C9000143A7
:1006F000596059680A405A608022596892020A4338
:100700005A608022596892010A435A60042299690A
:100710001142FCD0596A04AA9171042106329869E9
:100720000842FCD0596A5170402198690842FCD0B7
:1007300080215868C90101430F205960138810AC0B
:100740005BBADD0418400023ED0C158003902D11D9
:10075000636223709D4211D00A27012639002800C8
:10076000FFF78EFE481E3023079608281FD8FFF794
:1007700097FD1D3B3D3F414345474900012304AAE6
:100780000F932F331381424906A8FFF7CDFC03983E
:10079000404901380E283ED8FFF782FD3C5B848635
:1007A000888A8C8E90929496989A9C00312304AA01
:1007B000138106A92000FFF7A7FC28003900FFF7E6
:1007C00079FD051ECAD12200636A5808E318019911
:1007D000013B884218D011781D7815701970019965
:1007E000013201310191F2E73223E0E73323DEE702
:1007F0003423DCE73523DAE73623D8E73723D6E797
:100800003823D4E73923D2E72822210006A800F0B4
:10081000E9F8B8E7204906A8FFF786FC1F4906A8B3
:10082000FFF782FC06A98C460F9B8020019363444E
:100830001A000E4B196E63469A424DD0002906D01D
:100840001C78029D2C85029CE4690442FBD0013394
:10085000F2E71349DFE7C04600100240FFF0FFFF58
:1008600000380140FF0FFFFF00E100E02000002002
:10087000FFFFF3FFFFFDFFFFFFFFCFFFFFFBFFFFCA
:1008800000540040FFFF0FFFFFFF00FFFFFFFFFED0
:10089000100A0008120A0008170A0008620A000875
:1008A0001C0A00080D49B6E70D49B4E70D49B2E747
:1008B0000D49B0E70D49AEE70D49ACE70D49AAE790
:1008C0000D49A8E70D49A6E70D49A4E70D49A2E7A0
:1008D0000D49A0E70D499EE7FEE7C046210A000842
:1008E000260A00082B0A0008300A0008350A00080A
:1008F0003A0A00083F0A0008440A0008490A0008AA
:100900004E0A0008530A0008580A00085D0A000849
:100910000D4885460D480E490E4A002302E0D45882
:10092000C4500433C4188C42F9D30B4A0B4C002337
:1009300001E013600432A242FBD3FFF723FC00F076
:1009400025F8FFF7DDFDFEE7001000200000002085
:10095000040000207C0A000804000020A4000020FD
:10096000FEE7030010B50800190000F001F810BD03
:1009700010B5040004481300002804D00A00022027
:10098000210000E000BF10BD0000000070B500268F
:100990000C4D0D4C641BA410A64209D1002600F09A
:1009A0002BF80A4D0A4C641BA410A64205D170BD59
:1009B000B300EB5898470136EEE7B300EB58984781
:1009C0000136F2E7700A0008700A0008700A000891
:1009D000780A000803008218934200D1704719700A
:1009E0000133F9E7002310B59A4200D110BDCC5C69
:1009F000C4540133F8E70000F8B5C046F8BC08BCA1
:100A00009E467047F8B5C046F8BC08BC9E46704785
:100A10002E00303030300030363235003132353053
:100A2000003138373500323530300033313235005F
:100A3000333735300034333735003530303000351A
:100A400036323500363235300036383735003735F6
:100A500030300038313235003837353000393337EF
:080A6000350020430D0A0000DF
:080A6800A0F6FF7F0100000071
:080A7000E900000889040008F8
:040A7800C1000008B1
:040A7C000000000076
:0400000508000911D5
:00000001FF
