:020000040800F2
:1000000000100020F56600084567000845670008F5
:1000100000000000000000000000000000000000E0
:10002000000000000000000000000000456700081C
:100030000000000000000000456700084567000858
:1000400045670008456700084567000845670008E0
:1000500045670008456700084567000845670008D0
:100060000000000045670008456700084567000874
:10007000456700084567000845670008893C000897
:100080004567000800000000000000004567000808
:100090000000000045670008456700084567000844
:1000A000000000004567000800000000653B0008F4
:1000B0000000000000000000000000000000000040
:1000C00010B5064C2378002B07D1054B002B02D02E
:1000D000044800E000BF0123237010BD6800002029
:1000E00000000000E06C0008044B10B5002B03D0AA
:1000F0000349044800E000BF10BDC04600000000F6
:100100006C000020E06C00080300F7B51748161CCF
:100110001A680D1C5043164A16498018186003F0DF
:100120005BFE080004F044FB134904F077F9291C36
:10013000071C03F0AFFF01AC032300280AD1311CD8
:10014000281C03F0CFFF011C381C03F0A3FF00287C
:1001500008D00123237000236380638820881B0458
:100160001843FEBD022360802370F6E76D4EC64142
:10017000393000001127000000401C4610B59142A4
:1001800006D04F2B02D80C78C45401330131F6E766
:1001900010BD002330B54C68826A9C4205D9CC5C06
:1001A000551C856201338454F5E70023835430BD28
:1001B000F0B5802610493602104ACE67146893883D
:1001C0000F4D1818FA232E602E000D0080B29B00F0
:1001D00098420BD280210902E96717689388316041
:1001E0009BB2BC42F8D89842F6D8F0BD054901341C
:1001F000401880B2ECE7C04604E100E08400002033
:1002000000E100E018FCFFFFF0B590251026ED0599
:100210006C69091AB4436C61002425009B1A0E0016
:100220001E4313D1164BC022190052019868104288
:10023000FCD180238A68100018401A42FAD190221B
:100240001023D20551690B435361F0BD002909D039
:1002500002270B4EB6683E4204D0465D094F013579
:100260003E700139002BDAD00127054EB6683E42B8
:10027000D5D0044E013B36781655E419CFE7C04679
:10028000003001400C300140094B70B59C6880255E
:100290000300084A8B4208D0002C04D01E78168533
:1002A000D6692E42FCD00133F4E7181A70BDC0465F
:1002B0008400002000380140002330B54C68426AB9
:1002C0009C4205D9CC5C551C456201338454F5E74A
:1002D0000023835430BD00230360704770470A78C1
:1002E000436AC254002A03D0013343620131F6E766
:1002F00070470023F0B58DB002AC06000F00012559
:1003000023706362994212D1012343622F33038029
:1003100030000DB0F0BD6B4630221A8069462000D7
:10032000FFF7CAFF38000A2103F07AFD0700002F0B
:1003300022DD0A21380003F059FE481E01950828E5
:10034000E9D803F059FD05090B0D0F11131517001E
:1003500031236A461380E1E73223FAE73323F8E7D3
:100360003423F6E73523F4E73623F2E73723F0E7C3
:100370003823EEE73923ECE722000021636A5F08A7
:10038000E318013B8F4206D010781D7801311570BB
:1003900018700132F5E7330007CC07C307CC07C359
:1003A00007CC07C322681A60B2E710B580B2FFF726
:1003B000FFFE10BD436D13B5C118FFF765FF0023A5
:1003C00001201A000A4C0193A15C002904D06B465D
:1003D000995403000132F7E7002B00D0019200236B
:1003E0006A460199684653546944FFF74DFF13BDAF
:1003F000866E00088268030080185218072A00D908
:10040000083A9A601A69511A19617047F0B580214B
:10041000A5B0039001207A4C8903E369794E0B4320
:10042000E361794B794F1A6882431A601A691201A5
:1004300012091A6180221D6952052A43FF251A619B
:100440001A69AA431A61C7221D692A431A611A69E7
:1004500032401A6180221D69D2032A431A611A6848
:10046000F025104390221860D205506AA8435062CC
:100470004020556A28435062106838401060802040
:1004800015680003284310605568614805405560B1
:10049000D0683840D0608020D568C0022843D06042
:1004A000506A5C4F384050628020556AC000284333
:1004B0005062156858480540156015682943116059
:1004C000556856490D405560D5682840D060802059
:1004D000D56840032843D0605A68920A92025A6055
:1004E0003022586802435A605A681140596059686E
:1004F0004B4A1140596080215868490201435960B4
:100500008021586889010143596042219869084255
:10051000FCD0052199623B3198690842FCD08021CA
:100520005868C9010843586058680842FCD1202126
:10053000D8690143D96158683A4908405860802019
:1005400000029D690542FCD12020DD692843D86165
:1005500058680140596080210902986905000D40E2
:1005600002950842F9D180215868C90001435960B9
:1005700059680A405A608022596892020A435A60B8
:100580008022596892010A435A60042299691142F3
:10059000FCD0596A10AA1170042198690842FCD055
:1005A000596A5170402198690842FCD080215868EE
:1005B000C9010143596011881AA849BA8DB2C9040A
:1005C000C90C11800911FFF794FE17491AA8FFF70B
:1005D00086FE0F202840013814490E2829D803F040
:1005E00015FC2700D601D801DA01DC01DE01E001AB
:1005F000E201E401E601E801EA01EC01EE01F001AB
:1006000000100240FFFF0FFF00540040FFFFF3FF08
:10061000FFFDFFFFFFF0FFFFFFFFCFFFFFFBFFFF2F
:10062000FFFF00FFFFFFFFFE986F0008346E000819
:10063000EA491AA8FFF753FEE9491AA8FFF74FFE47
:100640001AAA9446239B1000009363441900FFF7F5
:100650001BFE80224021A36952011343A361E14B99
:10066000082518688843186038201C6884431C607B
:100670001C682043186058680740E0205F605C6891
:10068000C00020435860586802435A6080221868AE
:10069000920002431A6080221868520010431860CA
:1006A00004201C68204318601868CF4C014319606F
:1006B00090231020DB0559690143596119682140D5
:1006C00019601968C94C0A431A605A6882435A6013
:1006D0001A6AC74816401E621A6A1A62D96801402F
:1006E000D9608021DA68C9001143D9601A680240D4
:1006F0001A608022196812010A4320211A605A6880
:10070000BC488A435A601A6ABB490A401A621A6A8C
:10071000BA491A621A680A401A608022196892015E
:100720000A431A601A6A120112091A621A6A1A62D4
:10073000D9680140D9608021DA68C9011143D960C4
:100740001A6802401A608022196812020A43802146
:100750001A605A6808A88A435A60636908AA2B433A
:10076000636163693839AB436361D0231384002329
:1007700052181380263908AA4A339B1809181AAA56
:1007800010A8FFF741FD0120FFF712FD492208AB39
:100790009B181B78002B00D015E163692B43636124
:1007A0006369AB436361964B08AA138422214A23F1
:1007B00000251AAC08A89B180918220010A825804B
:1007C000FFF722FD0120FFF7F3FC0A20FFF7F0FC02
:1007D0008C4B08AA138422214A2308A89B180918C5
:1007E000220010A82580FFF70FFD0120FFF7E0FC95
:1007F0000A20FFF7DDFCFA23220011A9109310A8AC
:100800001BAB1A95FFF700FD0120FFF7D1FC6378C1
:10081000A2781B0412021343E27811A91343019337
:10082000F7232200109310A81BAB1A95FFF7ECFCDE
:100830000120FFF7BDFC637802270493A37809AD7C
:100840000593E37808240693212008AB3A000021A1
:10085000C01806F0CFF8802320215B4208AA23436A
:1008600052181370684B1AAE1B7808A833704923CE
:100870001B183A000021180006F0BCF84B23232176
:1008800008AA08A89B180918320010A8FFF7BCFC9A
:100890000120FFF78DFC49224A2108AB9B181A78EA
:1008A00008AB5B181B7802341B021343E4B22B80A5
:1008B00002350E2CC8D10BAB009380235B4207930B
:1008C00010AD09220021280006F094F8079B0527A7
:1008D00023432B7000233A0019001BA81A9306F03B
:1008E00089F85123292108AA08A81AAE9B180918CB
:1008F00032002800FFF788FC0120FFF759FC49224D
:1009000008ABD218537811781B02009A0B4313805E
:10091000130002340233E4B20093202CD0D109AA90
:10092000019B14881B121B1B01995B43C9116400B6
:100930000C1B518892881B1353434C439B13E412A6
:10094000E4186743314B80373F12DC606421380084
:1009500003F066FA01002800FFF7CBFC28002C49C1
:10096000FFF7BDFC3800642103F040FB3000FFF7C7
:10097000C0FC002301271900686A239A00952D18EE
:100980009A4263D0995DE95439000133F8E721496F
:100990004FE621494DE621494BE6214949E62149E7
:1009A00047E6214945E6214943E6214941E62149F7
:1009B0003FE621493DE621493BE6214939E6214907
:1009C00037E6214935E6FF2B00D0ECE663692B437F
:1009D00063616369AB436361DFE6C046396E00085B
:1009E000846E000800300140FFFCFFFF0004004857
:1009F000FFF3FFFFFF3FFFFFFFFFFFF0FFCFFFFF12
:100A000060B6FFFF74320000F86C0008840000201C
:100A1000986F00083E6E0008436E0008486E00089C
:100A20004D6E0008526E0008576E00085C6E00089C
:100A3000616E0008666E00086B6E0008706E00083C
:100A4000756E00087A6E00087F6E00081218002983
:100A500001D0009B5A62009B009A5B6A10000193D0
:100A600000230199641053549649FFF738FC009A0B
:100A7000009B94465B6A1000019363441900FFF7E2
:100A800003FC914BE418A21052430BAB988851130E
:100A900041435888C91060434010091880208914C8
:100AA0000002091818884143C9132ED05889D21260
:100AB0004243188944436400A418049AA410100403
:100AC000059A12020243069810430200D8887F4B11
:100AD000000400190013140904197D486043C0186C
:100AE0007CD4400003F0F2F8C3085B430BA95A0B17
:100AF0000B8A84085343CA891B13624352139B1801
:100B00008A899B181B111B18029302991AA8FFF7D8
:100B1000F0FB70491AA8FFF7E2FB1AAA9446239B40
:100B20001000009363441900FFF7AEFB6A4CA76DF9
:100B3000002F00D0A8E0082239000BA805F05AFFCA
:100B400008230D93A368002B5AD03D008022634BED
:100B5000A0681205DA670369614E002B42D132604A
:100B60000D95002D4DD00BAE75195B48C26EB54288
:100B70004BD1456E5C3053199C462B00591B9C454C
:100B80005ED01900072B00D90839415C0A2902D030
:100B90005E1C0D2952D1083A51424A41D2B2072B6C
:100BA00054D8002148268C4608A880194A4E017066
:100BB0005C361AA80096AB4203D1002A00D176E039
:100BC0000022009E765D0670664646706E1C072EFB
:100BD00000D9EE1F350001310130ECE703F076F863
:100BE000400081E70121FFF705FC802302781B0507
:100BF00033600BABEA540135082DA7D10D95B2E750
:100C00000D930DA8FFF767FB90E733780093082A50
:100C100003D101215C30FFF7EDFB2F4B00981A0048
:100C2000996E5C3250549A6E531C072B00D9D31F17
:100C3000A366E36E01360133E36696E733009DE772
:100C40002029DED1200008215C301AE0083BA8E70B
:100C500000235354636D13911B01E318103361CAD1
:100C600061C3180013680360626D531C032B00D925
:100C7000D31E20006365A36D01310133A365C9B2A2
:100C80005C30FFF7B7FBBCE7206D431C032B00D99A
:100C9000C31E0001013F2365A765039B2418103480
:100CA00007CC07C322681A60039825B0F0BD10AACC
:100CB000B942CDD0482008AB1B18DB5DD3550137B6
:100CC000F6E7C046846E00080006FFFF000050C330
:100CD000CBF3FFFF896E00088400002004E100E0F0
:100CE00000E100E0704702000300002110B50E3261
:100CF000934205D01C78002C00D019700233F7E71E
:100D0000030002000021103380329A4205D01C7883
:100D1000002C00D019701033F7E702000100002307
:100D20000832883104300B60C367D36710BD0300FD
:100D3000002110B5821D934205D01C78002C00D0F4
:100D400019700233F7E7030002000021083338323C
:100D50009A4205D01C78002C00D019701033F7E7A8
:100D6000002303648363C36310BD4368002B02D177
:100D70000360836070471A6802609A685B688260EB
:100D80004360F7E770B504000800FFF7EEFF2300AB
:100D900026C826C3200070BD30B5030002000E3007
:100DA000824228D01478002C23D1012009781070B9
:100DB000517010181A00190010328031914220D061
:100DC0001478002C19D1D46094601C0001210834DF
:100DD000E56F11705060111DD560002D0FD11D1DE4
:100DE000E967E1670021883391601A6801321A606F
:100DF00030BD0232D4E70020DCE71032DEE7696064
:100E0000EFE70833DA6F00239A60FFDE0B009833B8
:100E10001B6830B5002B03D103604360836030BD95
:100E2000020090310B6832CB32C2F8E703000200B7
:100E3000002110B51033934205D01478002C00D057
:100E400011700232F7E7020000219032934205D080
:100E50001C78002C00D019701033F7E70100002235
:100E6000983194300A601A60026010BD020070B5BB
:100E7000030004001032944225D02078002820D1AD
:100E8000097801302070617020181E00903696425B
:100E90001FD01478002C18D1D46094601C0001215C
:100EA0009434256811705060111DD560002D0ED14D
:100EB000316021600021983391601A6801321A6014
:100EC00070BD0234D7E70020DFE71032DFE769604A
:100ED000EFE794331A6800239A60FFDEF8B54D22DD
:100EE0000023010004000500037042708370C2708B
:100EF000037142718371C271037242728372C27252
:100F0000037342738373C27310312B706A7002359E
:100F10008D42FAD100273E00621C23746361A361F5
:100F2000E361D3772F326362A362E362137063637A
:100F3000A363E363103213706364A364E364103249
:100F400013706365A365E365103213706366A3666F
:100F5000E366103213706367A367E367137453612A
:100F60009361D3613801201810220021103001371D
:100F700005F040FD2E706E60AE60EE601035082FFB
:100F8000F0D12300903320001E605E609E60F8BDAB
:100F900003000200002110B52433934205D01478D9
:100FA000002C00D011700632F7E7020000218432D5
:100FB000934205D01C78002C00D019701033F7E74D
:100FC000020000238C3213608830843AD3670360B8
:100FD00010BD10B504002030FFF77DF9200010305F
:100FE000FFF779F9200010BD4368002B02D10360A0
:100FF000836070471A6802609A685B688260436029
:10100000F7E7FC31CB6D30B5002B03D103604360B3
:10101000836030BD02004B6D32CB32C2F9E770B550
:10102000050004000600F035AE4209D03378002BED
:1010300004D0301DFFF7CDFF002333702836F3E7CF
:1010400022002B0000215132FF329A4205D018783D
:10105000002800D019701033F7E723000022FC337A
:10106000DA655A659A65AC4204D0283D281DFFF721
:10107000B0FFF8E7200070BD002310B583604A6A16
:101080008260934203D0CC5CC4540133F9E7002260
:10109000C25410BD70B504000579142608008034D0
:1010A0002900013002F0A2FF0B007343E318DA8934
:1010B000C8B2002A02D11B8A002BF1D070BD0300F8
:1010C00005485A6A10B55043044A062180185862F0
:1010D00002F082FEC8B210BD6D4EC641393000002C
:1010E00003795A1C332A00D9FEE702710530C05C2F
:1010F000704710B52830FFF7F3FF10BD002343649D
:101100000A78436CC254002A03D00133436401318E
:10111000F6E77047002343620A78436AC254002A04
:1011200003D0013343620131F6E7704730B58BB02D
:101130000C0005000A496846FFF7ECFF0023099AF6
:1011400062659A4204D06946C95CE1540133F8E70C
:101150000023A35420002B68E96898470BB030BDEA
:101160008F6E00084D238268835482680B78835405
:1011700083685A1C8260C0187047F0B50700FBB046
:101180002030FFF7A8F814AC00224D232100227074
:101190006370A270E37022716371A271E3712272B5
:1011A0006372A272E37222736373A273E373227495
:1011B0006374A274E37422756375A275E375227675
:1011C00063760594019201980A7001304B7001908A
:1011D00002310D28F7D13B1D1A300893FF300AABBE
:1011E00005220021C01805F005FC3A1DBB1D53ADBA
:1011F0009B1A0693AB603B794D202B707B793A6943
:101200006B703B0008330393049399180295029D79
:10121000029AAC4692686244079299420BD01070D1
:10122000AA680792079E1A780133AA55AA680792FE
:101230000132AA60EBE7029D14AE079B9D4210D0DD
:101240000F202B780D211840029302F0C5FDC9B282
:1012500049008B5D013501338B55029B71184B7032
:10126000EBE755A8FFF737F8B24B4D201B939A23B5
:101270001BAEDB01B3800AAB03220021C01800259E
:1012800005F0B8FB5D200AAB032229003572F5603A
:1012900035617561C01805F0ADFB6D200AAB357680
:1012A000F56135627562C0180322290005F0A2FBC2
:1012B00025AB1D709F4B2000029301239C46F562D5
:1012C00035637563B563F5633564019E09950378ED
:1012D000022B20D103221BAB1978002953D162467F
:1012E00041781A7059705A1C03211DAB1D78002DCE
:1012F0004ED16146DD609D605A602A9A1970DA60AD
:10130000191D002A4BD12991099A2A919A602B9B89
:10131000079301332B93013E0230002ED7D1299B36
:10132000002B09D001239C460F360025299B5A68C3
:10133000002A36D1002DF8D153AD2CA8FFF7CEFDF1
:1013400000210822280005F055FB00234D21AB6049
:10135000019B2278002A07D0AA68A954A86862785D
:101360002A54AA680132AA60013B0234002BF0D152
:10137000559B53ACE518AC422FD021002CA8FFF7A9
:1013800075FD0134F7E7013A0233002AA4D1ABE737
:10139000013910330029A9D12A9B8B60FFDE5160EF
:1013A000B2E71168087819683040097831408842FE
:1013B0000DD9996800290CD1299250689A6058601B
:1013C000002808D12A9353606546130091605B683A
:1013D000ADE74A60F1E78360F5E7509B002B08D04A
:1013E0000F2501260024509B5A68002A74D1002C36
:1013F000F8D1509B1B681A780F2313400C2B0AD18D
:10140000519A11A912682CA81278120912011343DB
:101410000B70FFF72BFD55A8FEF75DFF4D220CA9C1
:1014200000230A71012118008C460C930599097854
:10143000994203D90B006046059A5278994210D31D
:10144000059C6678994209D10F2534002C400794F9
:1014500014002C402500079CA54202D80B00320046
:10146000604601990139019105990231059101996F
:101470000029DBD1002802D00CA90A710C9393201B
:10148000029B40000A930B930AAB0522C01800216F
:1014900005F0B0FA069B53ACA3603B79029423702D
:1014A0007B793A6963704D24039B9818029D029AD8
:1014B000AC469268059262441100984228D02900F7
:1014C0001470AA680592059D1A7801334A558A68F6
:1014D000059201328A60E9E71168087819682840A6
:1014E0000978294088420DD9996800290CD1509279
:1014F00050689A605860002808D1519353603400B6
:10150000130091605B686FE74A60F1E78360F5E77D
:101510000325029B99420FD01C780AA822112A4069
:101520005200105C0AAE013090559219547001338C
:10153000F0E7C046004D004D55A8FEF7CCFE042351
:101540000AAA117805293BD101235678360902935E
:10155000529B0024042B4BD94D2553A8FFF7BEFC0A
:101560002CA90EA8FFF752FC05940E9C002C53D01A
:101570000F2215400D2D2ED0237813406A1E9A425B
:1015800003D0002D22D10C2B20D1059B210001334B
:1015900053A80593FFF76AFC059B042B1FD12CA8C9
:1015A000FFF744FC53A911A8FFF730FC119900295B
:1015B0001AD02CA8FFF75AFC11A8FFF7D6FBF5E7C5
:1015C000013B0232002BBCD10326C0E753A8FFF732
:1015D0002DFC00230593210053A8FFF747FC0EA81C
:1015E0002578FFF7C2FBC0E753A8FFF71FFC0124D3
:1015F000029B002B34D0002C32D02CA953A8FFF72B
:1016000005FC539B002B0BD01B781B099E4227D156
:1016100053A8FFF7AAFBF4E753A8FFF707FCE7E797
:101620002CA953A8FFF7F2FB0F22539B1B78134002
:101630000C2B09D1023B7B612CA8FFF7F7FB1BA801
:10164000FFF775FB7BB0F0BD09232CA953A87B6184
:10165000FFF7DCFB380053991830FFF783FDEBE709
:101660000C9B0CAD042B19D104337B6118370DA9E9
:101670003800FFF777FD2CA911A8FFF7C7FB0F2152
:10168000119B2A791B780A400B409A4203D111A979
:1016900053A8FFF777FB11993800DEE7032B0CD135
:1016A0002B9A002A09D004337B6118370DA9380022
:1016B000FFF758FD299B1968EEE7029A002A00D12E
:1016C000C7E0062300214D207B6153AB1A0019703F
:1016D00058709970D870197158719971D8711972C0
:1016E00058729972D872197358730B0001311370C4
:1016F000507002320729F9D126210024FF310AA8AF
:1017000053AA0918137453619361D361CB775FA90E
:1017100053629362D3620B7063A953639363D36381
:101720000B7067A953649364D3640B706BA9536502
:101730009365D3650B706FA953669366D36657ADF7
:101740000B7053679367D36701981022030001332E
:101750000193000153AB18180021103005F04AF92D
:10176000019B2C706C60AC60EC601035072BEBD1EA
:101770003B797394749475941B099E4203D1089924
:1017800053A8FFF709FB7B79791D1B09B34202D1EE
:1017900053A8FFF701FB3A69039B944663441C007E
:1017A000049B9C420BD01B781B099E4203D10499D9
:1017B00053A8FFF7F1FA049B01330493F0E7739BFE
:1017C000002B07D00F240025739B5A68002A1BD1D9
:1017D000002DF8D1759B11AC002B31D111936360B2
:1017E000A3600025119900292FD00B781B099E4278
:1017F00006D1380001351830FFF7B4FC042D24DC85
:101800002000FFF7B2FAEDE7116808781968204068
:101810000978214088420DD9996800290CD173922A
:1018200050689A605860002808D174935360130080
:10183000029D91605B68C8E74A60F1E78360F5E765
:101840002300739A23CA23C3CBE753A8FFF74BFAAD
:10185000F2E6002C15D005242CA97C6153A8FFF7D3
:10186000D5FA5399002900D1E6E63800013C18303A
:10187000FFF778FC002C00D1DEE653A8FFF775FADD
:10188000EFE7032B1FD101337B6118370DA9380017
:10189000FFF768FC2CA911A8FFF7B8FA0F21119BDC
:1018A0002A791B780A400B409A4203D111A953A808
:1018B000FFF768FA11993800FFF754FC11A953A8F3
:1018C000FFF760FADBE62B9B012B2BD903230EAC31
:1018D0007B612300299A23CA23C33D0018350E9942
:1018E0002800FFF73FFC210053A8FFF74BFA0E99A1
:1018F0002800FFF737FC2CA911A8FFF787FA0F245F
:1019000011993A7E0B78224023409A4203D07A7E86
:101910002240934204D111A953A8FFF733FAEFE70D
:1019200028009AE6012B22D101337B6118370DA9DB
:101930003800FFF717FC2CA953A8FFF767FA0F260A
:101940005399002900D177E62A790B783240334049
:101950009A4208D03800FFF705FC019B0133019340
:10196000022B00D968E653A8FFF7FFF9E8E7012347
:101970000F21519A7B61106803780B400C2B17D113
:101980009368002B00D05C60519300230821936082
:1019900030AB1C1DA24220D100221A7008222CABB1
:1019A000591C88421ED100221A70529B013B52934F
:1019B0002CA953A8FFF72AFA05245399002900D12E
:1019C0003AE63800013C1830FFF7CCFB002C00D180
:1019D00032E653A8FFF7C9F9EFE7013910330029C0
:1019E000D7D1DBE7013A0233002AD9D1DDE78842BB
:1019F00003D0137803700130F9E77047002330B546
:101A00004D6A8362826AAB4205D0CC5C0132C45419
:101A100082620133F6E70023835430BD002330B5E2
:101A20008C6A826AA34205D2CC5C551C8562013364
:101A30008454F5E70023835430BD0023F0B58FB004
:101A400003AC06000F0001252370A362994210D158
:101A5000012383622F33038030000FB0F0BD3123A8
:101A60000B802000FEF795FB38000A2102F0D8F920
:101A70000700002F20DD0A21380002F0B7FA481EC7
:101A8000302301A94D600828EAD802F0ABF9E80537
:101A900007090B0D0F1113003223E1E73323DFE7B2
:101AA0003423DDE73523DBE73623D9E73723D7E7D0
:101AB0003823D5E73923D3E722000021A36A5F0842
:101AC000E318013B8F4206D010781D780131157064
:101AD00018700132F5E7330007CC07C307CC07C302
:101AE00007CC07C306CC06C3B6E730B504000D002B
:101AF00099B00F490DA8FFF70DFB0DA902A8FFF73C
:101B00007DFFA38FA18B0DA8C91AFFF796FF0DA922
:101B100002A8FFF783FF0C9B02AA01939B181A00EF
:101B20002800002302A9FEF729FB19B030BDC046EA
:101B30009A6E0008002330B54C6A826AA34205D22F
:101B4000CC5C551C856201338454F5E70023835433
:101B500030BD002310B583628A688262934203D04D
:101B6000CC5CC4540133F9E70022C25410BD0023F9
:101B700010B583624A6A8262934203D0CC5CC4543B
:101B80000133F9E70022C25410BD30B582688C6879
:101B900003000020A24208D1824205D01D5C0C5CEB
:101BA000A54203D10130F7E7012030BD0020FCE75A
:101BB000002330B54D6A83608268AB4205D0CC5CAF
:101BC0000132C45482600133F6E70023835430BDF0
:101BD000902302009B00F0B5C418844230D00378F3
:101BE000002B2BD101330370031DE0C9E0C3E0C912
:101BF000E0C3E0C9E0C360C960C30430C0239B00F8
:101C0000D3189C4222D0217800291BD1A160E16029
:101C1000C02101238900555823706060231DA560F1
:101C2000002D11D15350C12189005350C2210023EE
:101C30008900E360535801335350F0BD3030CCE796
:101C40000020DBE71034DCE7AB60EEE7C0239B004D
:101C5000D25800235A60FFDEC1239B00C25870B5E2
:101C60009268002A01D000215160C258C0249168B6
:101C7000A400C1500023936090239B00C318051952
:101C80001C0011689D4204D01E1DB2420FD10022DB
:101C90001A700300A34204D01A1D914209D10022F8
:101CA0001A70C22292008358013B835070BD1033DA
:101CB000E8E73033EEE770B50C0005000830FEF7BA
:101CC0000AFBA368E618B44205D021002800FFF7FC
:101CD00049FA0134F7E7280070BD4D2303704370C3
:101CE0007047012370B504005B4208C0FFF7F5FFA1
:101CF0000526200032000021083004F07BFE00257C
:101D000020003200290025616561183004F072FE60
:101D10002000256270BD37B5536D0C00D1186B469D
:101D20001500DA1D202328001370FFF760FE232220
:101D30006B6D2A70EB18013B1A70216800290AD0DC
:101D40008B6A2800CA182823FEF718FA6368002B4C
:101D500002D12360A36037BD1A6822609A685B686D
:101D6000A2606360F7E770B5150014225A4380182B
:101D7000468F0C0098B0002E02D1838F002B19D013
:101D80000D490DA8FFF7C6F90DA902A8FFF736FE09
:101D900031000DA8FFF751FE0DA902A8FFF73EFE86
:101DA0000C9B02AA01939B181A0020002B0002A989
:101DB000FEF7E4F918B070BDA36E0008F0B5150089
:101DC0001A0014231E0004005643A619778F08003A
:101DD00085B0002F02D1B18F00290BD001A9534348
:101DE0000A00E3182C33D0CBD0C28B68CA182B0062
:101DF000FEF7C4F905B0F0BDF0B518781F000F2349
:101E00009DB0009101924549184011AC0D2809D8A8
:101E100001F0F2FF181A1C1E20222426282A2C2E3C
:101E200007303F49002507A8FFF774F9200007A9EC
:101E3000FFF7E4FD1B9A03AEAA421DD0635D735504
:101E40000135F9E73749EDE73749EBE73749E9E786
:101E50003749E7E73749E5E73749E3E73749E1E756
:101E60003749DFE73749DDE73749DBE73749D9E766
:101E70003749D7E73749D5E7002373553B782749DA
:101E800018094F2B05D801F0B7FF1A0316181C00CC
:101E9000314907A8FFF73EF907A92000FFF7AEFD7B
:101EA00000221B9991420ED01427A35C02A8C019EE
:101EB00083540132F6E72949EBE72949E9E7294943
:101EC000E7E72449E5E700239C461420614602AB7E
:101ED0001B1899542300069583CE83C361461D6069
:101EE000012063466619934207D0142702A9C91935
:101EF000C95CF15401000133F5E75D19002900D0F8
:101F0000E5600023E2680199A3545308CB1A0098B6
:101F10002100A218FEF732F91DB0F0BD886E00084E
:101F2000A56E0008A76E0008A96E0008AB6E000839
:101F3000506E0008AD6E0008AF6E0008B16E00086C
:101F4000B36E0008B56E0008B86E0008BA6E0008DF
:101F5000BC6E000805700008BE6E00080E6F000819
:101F6000CC6E0008C06E0008F7B50F0014211500F4
:101F70000A0006005A432C360400B018807C002862
:101F800018D1A218508F002802D1928F002A11D0A8
:101F900059430B000C332A0020000191F31839003B
:101FA000FFF72AFF019B39000D332000F3182A1D8B
:101FB000FFF722FFF7BD10B50400481E8AB0134991
:101FC000092807D801F018FF201E1C1A1816141231
:101FD00010050F496846FFF79DF869462000FFF796
:101FE0000DFD20000AB010BD0A49F3E70A49F1E7E8
:101FF0000A49EFE70A49EDE70A49EBE70A49E9E749
:102000000A49E7E70A49E5E70A49E3E7886E000875
:10201000C26E0008CE6E0008DD6E0008EC6E00088F
:10202000C86E0008F76E0008006F0008106F000807
:10203000146F0008196F0008F0B50600A3B00CACCF
:102040000D0020002D49FFF765F8210002A8FFF7D9
:10205000AFFD300002A9FFF798FD2B680600071EB0
:1020600001932BD0264902A8FFF754F800231A0049
:102070000B996365914205D002AB9B5CA35433007E
:102080000132F7E7002B00D061650023626D20006C
:10209000A354019BE96898471A4902A82E68FFF7E4
:1020A00039F8002301201A000B996365914219D079
:1020B00002AB9B5CA35403000132F7E7124902A86C
:1020C000FFF728F8330001210B9A66659A4205D084
:1020D00002A8C05C0F00E0540133F7E7002FD4D012
:1020E0006265D2E7002B00D061650023626D20009D
:1020F000E968A354B04723B0F0BDC046236F000881
:10210000276F00083F6F0008306F00080B780370DE
:102110004B7843707047F7B5030005000C000A00C8
:102120002F0043CA43C3210028002E00A389103189
:10213000AB81A37B1030AB73E37B9437EB73FFF77A
:10214000BAFD1C361C340197300021008CC98CC0AC
:10215000FFF7DCFFE389F381238A3382A37C143405
:10216000B374019B14369E42EED12800FEBD70B5BB
:1021700000250400856005700C30FFF7AEFD2000DF
:10218000E5812582A57470BD70B500250400290085
:102190000522056045608560C560103004F02AFCAA
:1021A000A56125001C352800FFF7E1FF2000303035
:1021B000FFF7DDFF20004430FFF7D9FF2000583043
:1021C000FFF7D5FF20006C30FFF7D1FF200026007D
:1021D0008030FFF7CCFF943628001435FFF7C7FF97
:1021E000B542F9D1200070BDF0B50F00060089B0EE
:1021F00003920593FFF7C8FF3B003200643313CB13
:1022000013C21B883900B381039B3000B3733B00BA
:1022100073331B787431F3731030FFF74CFD3300C8
:102220003D001C331C0080350293783301950493E4
:102230002300019A23CA23C307A81D00FFF74DFD01
:102240004D2306AA13715371280007A9FFF75EFFFB
:10225000019BDB89E381019B1B8A2382019B9B7C81
:10226000A374019B143414330193049B9C42DFD16B
:1022700014250398029B684380370C3039181818CE
:10228000FFF744FF059CA368E3180193019BA34259
:1022900009D02078029B68430C3039181818FFF7D2
:1022A00035FF0134F2E7300009B0F0BD30B5A9B018
:1022B00004000D0006220021684604F09BFB00226A
:1022C0006B46210003A80292FFF78EFF2800636986
:1022D000226A03A9984709A8FDF7FDFF02A8FDF7A8
:1022E000FAFF29B030BD040009A8FDF7F4FF02A8E9
:1022F000FDF7F1FF200003F0A7F9F0B5ABB0040043
:102300000D0016000021062202A81F0004F072FB37
:102310000022210002AB05A80492FFF765FF236AA3
:102320003A00009331002800246905ABA0470BA8B0
:10233000FDF7D1FF04A8FDF7CEFF2BB0F0BD0400E0
:102340000BA8FDF7C8FF04A8FDF7C5FF200003F0A8
:102350007BF9030070B5050070331A880C008035D6
:10236000002A1CD014210B006343EB18DE891B8A62
:10237000D21A92B2131CB24200D9331C61436918BD
:102380000A8A9BB29A180A826200F61A821864328C
:10239000CE8116889E1916800122FFF7AEFF142108
:1023A0004C432D19E88943425841C0B270BDF7B57E
:1023B0000500184F006801937843174B0E00C018B2
:1023C00016492860009201F007FD080002F0F0F9BC
:1023D000134902F023F83400019901F05BFE002854
:1023E00010D028680C4B7843C0180C49286001F0C5
:1023F000F3FC080002F0DCF9A419094902F00EF818
:10240000A4B2E9E7009B201C9C4201D96B461888C6
:1024100080B2FEBD6D4EC64139300000112700006C
:1024200000401C460100030000200C318B4204D008
:102430001A880233801880B2F8E7704730B504007C
:1024400099B00D000DA80F49FEF764FE0DA902A872
:10245000FFF7D4FA20001030FFF7E4FF01000DA8C9
:10246000FFF7EBFA0DA902A8FFF7D8FA0C9B02AA16
:1024700001939B181A002800002302A9FDF77EFE95
:1024800019B030BD536F0008F0B500259DB002AB08
:102490000E0006A904001D741B95FEF747FE50238D
:1024A0001AA90D7003AD2A001B9306A82D3B2B70B3
:1024B000FFF79DFA2368E16806A89847EB239B0085
:1024C000E358002B00D04CE103936B60AB60290014
:1024D000200006AAFFF71FFC02230B22200006A9FA
:1024E000FFF742FD18220323200006A9FFF73CFD59
:1024F0002368E16806A898472900200006AAFFF78C
:102500000AFC02230B22200006A9FFF757FC182221
:102510000323200006A9FFF751FC2368E16806A801
:1025200098472900200006AAFFF7F5FB02230B229B
:10253000200006A9FFF717FC18220323200006A994
:10254000FFF711FC2368E16806A89847290006AA4E
:102550002000FFF7E0FB2368E16806A89847290000
:1025600006AA2000FFF7D7FB2368E16806A8984772
:1025700029002500200006AAFFF7CDFB0123042235
:10258000200006A9FFF7F0FCA36A2035022B13D91F
:102590002B000F22200006A9FFF72EFC2300142297
:1025A0002000213306A90235FFF726FC2B00192253
:1025B000200006A9FFF720FC21220423200006A901
:1025C000FFF7D2FC2368E16806A89847200006AA16
:1025D00003A9FFF7A0FB01230422200006A9FFF7AF
:1025E000EDFBA36A032B06D901352B001122200035
:1025F00006A9FFF701FCA36A042B05D917222000C6
:102600006B1C06A9FFF7F8FB21220423200006A972
:10261000FFF7D4FB2368E16806A89847200006AAC4
:1026200003A9FFF778FB01230422200006A9FFF786
:102630009AFB21220423200006A9FFF794FB2368BC
:10264000E16806A8984706AA200003A9FFF763FBE4
:102650002368E16806A89847200006AA03A9FFF7A7
:102660005AFB00230A22200006A9FFF77DFC17224F
:102670000523200006A9FFF777FC2368E16806A878
:102680009847200006AA03A9FFF745FB00230A226A
:10269000200006A9FFF792FB17220523200006A9B8
:1026A000FFF78CFB2368E16806A89847200006AA7C
:1026B00003A9FFF730FB00230A22200006A9FFF739
:1026C00052FB17220523200006A9FFF74CFBE16807
:1026D000236806A8984706AA94461B9B02AA019362
:1026E0006344190023236046D3700332FFF77FF958
:1026F000E168236806A8984706AA944620251B9BF4
:10270000604601936344190002ABDA1CDD70FFF7E9
:102710006EF9200006A9FFF791FEE168236806A87C
:10272000984706AA94461B9B604601936344190090
:1027300002ABDA1CDD70FFF75AF9200006A9FFF79B
:10274000D4F92368E16806A898470023726A1B92AF
:102750009A420FD01025F15C02A84019C1540133F0
:10276000F6E72200C023A4329B00D3582A0083CB73
:1027700083C2ACE61020002302A909188B5406A8D6
:10278000E168236898476420A36898471DB0F0BDAE
:10279000F0B5A3B00193EB231600289A9B00289F65
:1027A000D35805000091A4370B2B02D93800FFF74E
:1027B00053FA002300980CAC01382370A36203285D
:1027C0007CD801F019FB0231658D534917A8002E02
:1027D00017D0FEF79FFC17A902A8FFF7E9F902A995
:1027E0002800FFF7D2F94D49002860D129002000C8
:1027F000FFF7AFF94A4917A8FEF78CFC200017A98C
:1028000036E0FEF787FC17A902A8FFF7D1F902A965
:102810002800FFF7BAF94349002848D129002000D1
:10282000FFF797F94049E6E73B4917A8FEF772FC26
:1028300017A902A8FFF7BCF9280002A9FFF7A5F91C
:10284000002818D0394917A8FEF764FC17A90CA86E
:10285000FFF78DF9310017A8FFF7EFF817A90CA8BB
:10286000FFF7DCF8324902A8FEF754FC02A90CA8D5
:10287000FFF760F922E029000CA8FFF76AF92D495B
:1028800017A8FEF747FC17A90CA8FFF753F9E1E7D3
:10289000214917A8FEF73EFC17A902A8FFF788F9FF
:1028A000280002A9FFF771F9002813D0224917A8C0
:1028B000FEF730FC200017A9FFF759F917A90A0005
:1028C0000CAB13CB13C213CB13C213CB13C203CB6A
:1028D00003C20DE029002000FFF73BF917498AE702
:1028E000174902A8FEF716FC02A917A8FFF786F8F9
:1028F00017A93800FFF76CF9289801991030FFF7F5
:102900000AFC0F4917A8FEF705FC289817A9FFF73E
:10291000BBFD23B0F0BDC046236F00085A6F00080E
:10292000646F00086C6F0008776F0008806F000804
:10293000986F0008896F0008906F00089A6F000870
:10294000886E0008EB23F0B517009B00D3580600F3
:102950000D00140097B0A4370B2B02D93800FFF7F5
:102960007BF9701E144E3100032804D801F044FA9C
:10297000021D1F21114901A8FEF7CCFB01A90BA8DC
:10298000FFF73CF80BA93800FFF722F920002900D7
:102990001030FFF7C0FB310001A8FEF7BBFB2000A1
:1029A00001A9FFF771FD17B0F0BD0549E3E705493F
:1029B000E1E70549DFE7C046886E0008A26F00081E
:1029C000AF6F0008B96F0008C36F0008F0B50025AD
:1029D0009DB002AB0E0006A904001D741B95FEF706
:1029E000A5FB50231AA90D7003AD2A001B9306A85E
:1029F0002D3B2B70FEF7FBFF2368E16806A8984784
:102A0000EB239B00E358002B00D04CE103936B6059
:102A1000AB602900200006AAFFF77DF902230B22F4
:102A2000200006A9FFF7A0FA18220323200006A918
:102A3000FFF79AFA2368E16806A898472900200062
:102A400006AAFFF768F902230B22200006A9FFF768
:102A5000B5F918220323200006A9FFF7AFF9236870
:102A6000E16806A898472900200006AAFFF753F955
:102A700002230B22200006A9FFF775F91822032371
:102A8000200006A9FFF76FF92368E16806A89847B8
:102A9000290006AA2000FFF73EF92368E16806A88E
:102AA0009847290006AA2000FFF735F92368E16856
:102AB00006A8984729002500200006AAFFF72BF951
:102AC00001230422200006A9FFF74EFAA36A20354D
:102AD000022B13D92B000F22200006A9FFF78CF937
:102AE000230014222000213306A90235FFF784F9C0
:102AF0002B001922200006A9FFF77EF921220423CA
:102B0000200006A9FFF730FA2368E16806A8984775
:102B1000200006AA03A9FFF7FEF8012304222000E3
:102B200006A9FFF74BF9A36A032B06D901352B0041
:102B30001122200006A9FFF75FF9A36A042B05D92B
:102B4000172220006B1C06A9FFF756F92122042347
:102B5000200006A9FFF732F92368E16806A8984724
:102B6000200006AA03A9FFF7D6F8012304222000BB
:102B700006A9FFF7F8F821220423200006A9FFF791
:102B8000F2F82368E16806A8984706AA200003A97E
:102B9000FFF7C1F82368E16806A89847200006AA55
:102BA00003A9FFF7B8F800230A22200006A9FFF7BF
:102BB000DBF917220523200006A9FFF7D5F92368C2
:102BC000E16806A89847200006AA03A9FFF7A3F822
:102BD00000230A22200006A9FFF7F0F81722052398
:102BE000200006A9FFF7EAF82368E16806A89847DD
:102BF000200006AA03A9FFF78EF800230A2220006E
:102C000006A9FFF7B0F817220523200006A9FFF751
:102C1000AAF8E168236806A8984706AA94461B9B71
:102C200002AA01936344190023236046D370033240
:102C3000FEF7DDFEE168236806A8984706AA9446D9
:102C400020251B9B604601936344190002ABDA1CEC
:102C5000DD70FEF7CCFE200006A9FFF7EFFBE16870
:102C6000236806A8984706AA94461B9B60460193D2
:102C70006344190002ABDA1CDD70FEF7B8FE2000D9
:102C800006A9FEF732FF2368E16806A898470023EB
:102C9000726C1B929A420FD01025F15C02A8401969
:102CA000C1540133F6E72200C023A4329B00D3585D
:102CB0002A0083CB83C2ACE61020002302A90918A6
:102CC0008B5406A8E168236898476420A368984756
:102CD0001DB0F0BDF0B5B9B03F9F1E003B00A4335E
:102CE0000393EB239B00FB580090029101920B2B66
:102CF00002D90398FEF7B0FF009B002B1ED00023E3
:102D00001BAC624926A825932370FEF703FA26A977
:102D10002000FEF72CFF310026A8FFF74CF9200019
:102D200026A9FEF77BFE05AA130007CC07C307CC34
:102D300007C307CC07C306CC06C334E054491BAD18
:102D400026A8FEF7E7F926A92800FEF731FF29009B
:102D50000298FEF71AFF10AC002877D04D49002EDC
:102D600048D126A8AE622E70FEF7D4F9280026A915
:102D7000FEF7FDFE019926A8FEF75FFE280026A9B2
:102D8000FEF74CFE44492000FEF7C4F9210028005C
:102D9000FEF7D0FE05AB07CD07C307CD07C307CDB0
:102DA00007C306CD06C305A90398FEF711FF380037
:102DB0003E9926AC1030FFF7AEF938492000FEF7F7
:102DC000A9F921003800FFF75FFB7B682000F96854
:102DD0009847299A2378002A03D0632B50D0712B6F
:102DE00051D020002E49FEF789F921003800FFF765
:102DF000EDFDEAE7009BA362237026A8FEF78AF99F
:102E000026A92000FEF796FE28000199FEF715FE80
:102E100029002000FEF702FE224926A8FEF77AF9D3
:102E200026A92000FEF786FE310026A8FFF7C3F88A
:102E300026A92000FEF7F2FD174926A8FEF76AF939
:102E4000200026A9FEF776FE05AB6EE7002E0ED118
:102E500002992800AE622E70FEF77BFE124926A86A
:102E6000FEF758F9280026A9FEF764FE82E7009BCA
:102E700002992000A3622370FEF76BFE0A49BCE7AB
:102E8000012039B0F0BD0020FBE7C046CE6F00083E
:102E9000236F0008DF6F0008986F0008EF6F0008CD
:102EA00007700008D86F0008E86F0008F0B504004C
:102EB000ABB064301E0002910392FFF7B3FA002317
:102EC0002200190070326366A366E3661380050072
:102ED00020792032984204D9118091700133143244
:102EE000F8E705AF2100330000223800FFF77CF936
:102EF000236A009701932A00A469309B03990298E2
:102F0000A04706E004000BA8FDF7E5F9200002F059
:102F10009BFB04000BA8FDF7DEF920002BB0F0BDF1
:102F20000300F0B50025C04C1433A5440700062269
:102F3000009105702900C5600571056118000493B2
:102F400003F058FD9C222C0008AB9B181D70FD61FE
:102F500030A8FEF7C6FE39AB1D703AA8FEF7C1FED9
:102F600043AB1D7044A8FEF7BCFE4DAB1D704EA8D0
:102F7000FEF7B7FE57AB1D7058A8FEF7B2FE61AB67
:102F80001D7062A8FEF7ADFE2FAB019328206843A9
:102F90002FAE28220021301803F02CFD019B0135B3
:102FA0001C70181DFEF79DFE019B28330193062D12
:102FB000ECD1C62208AB52009B181C709C2308AAB7
:102FC000FF339B185C705C7490235B00F4541033E7
:102FD000F4541033F45400266C946D946E947094F1
:102FE00071947294749475947694789479947A9494
:102FF0007C947D947E9480948194829434006BAD13
:1030000030016BAB102200211818013603F0F2FCDE
:103010002C706C60AC60EC601035062EF0D1009B1B
:1030200083948C3301930023849485940293009BB2
:10303000029A1B7993425BD9019B5B88002B03D1D9
:10304000019B9B88002B3DD0019B9B79002B39D1A4
:1030500035002FAC23780393002B3AD10133237032
:10306000231D0593029B009A6360019B74321B88A9
:10307000238123000C3323CA23C32000039B052292
:103080001900A3611C3003F0B5FC039B0598636233
:10309000FEF773F832006BAB197800291FD10122BB
:1030A000D9609960059884991A7058601A1DD96082
:1030B00000291BD18392849200229A60859B0393FE
:1030C00001338593029B01330293019B14330193D7
:1030D000ADE7013D2834002DBCD10595DAE7013A72
:1030E0001033002AD8D1849B9360FFDE4A60E2E768
:1030F0002FA90BA8FDF785FF0B9B002B0ED00022FC
:10310000F86904991B680A540A00F9690BA853541A
:10311000FB690133FB61FDF767FFEDE7839B002B44
:1031200009D00F240023839A02935168002926D1E5
:10313000029B002BF6D100242FA90BA8FDF761FFFD
:10314000002301930B9A002A5AD0839B1E6853696F
:1031500071698B420FD1156A18231835AC46634547
:1031600000D11DE20F200500D15C0140F05C01336D
:1031700028408842F3D00BA8FDF736FFE2E70B6842
:10318000156858696E69019386421ED118232E6A0C
:1031900018360396039898422CD0019EE85CF65CA2
:1031A0002040264001338642F4D01820039B9842E9
:1031B00020D0019E2B5C365C2340264001309E428D
:1031C000F4D0B3429B415B4204E00123864200DB22
:1031D0000023DBB2002B0DD0906800280CD1839126
:1031E0004D6891605560002D08D184924A600A00B4
:1031F00088600293526898E74160F1E7AA60F5E7BA
:10320000002C2AD1019B013B5A1E93413B70019B2C
:10321000012B0DD005490BAB0A5D1A55002A00D1D0
:103220009CE00134F8E7C046E4FDFFFF3170000880
:103230002FA90BA8FDF7E5FE14220B9B1B68534337
:10324000009AD31880333A1D13CB13C22FA90BA8B1
:10325000FDF7D7FE0B9B5B693B61242200210BA885
:1032600003F0C8FB00210B000BAA0131137093700F
:10327000938006320629F8D100241122250008A9DE
:103280005218D37718AA15931693179313701CAA84
:1032900019931A931B93137020AA1D931E931F93C7
:1032A000137024AA219322932393137028AA2593A1
:1032B0002693279314AE137029932A932B932001FE
:1032C00086AB1818C93810220021FF38013403F0EA
:1032D00091FB35707560B560F5601036062CEED147
:1032E0002FA908A82C952D952E95FDF78AFE00256F
:1032F0000898002842D0019B9D423FD022000BAB92
:10330000197800292CD101221A709A1C99705180C9
:10331000210014AB1E78002E27D10121DE609E60B3
:103320005A602D9A1970DA60191D002A24D12C9147
:1033300000222D919A602D9A2E9B1168FF22013355
:103340002E93036808A80B701340009A5B00643248
:103350009B5A01354B80FDF747FEC9E70D9472E794
:10336000013A0633002ACBD1D2E7013910330029C4
:10337000D0D12D9B8B60B8E65160D9E72C9B002BF8
:1033800007D0012000212C9B5A68002A68D100290F
:10339000F8D12E9B0026013B079300230393029351
:1033A000009B8033069314222C9D02982B68079C67
:1033B0001B785343069AD3181900DA890E31821804
:1033C000039892B2A04274D2DA812B6800990493D8
:1033D0001B78002405935B00CB18643319881E808A
:1033E000009B080064339C46059B9C4208D06346C2
:1033F0001B8899424ED2624608185B1A80B213802D
:10340000022301349C44062CEED16B46998800F0CF
:103410005DFC1422049B80B21B785343069AD31898
:10342000DA898218DA81029B181883B202936B68DA
:10343000002B00D09E60220029682C936E6014AB94
:10344000181D85422BD11E700BAB9A1C91422BD1BB
:103450001E702E9B013B2E93039B01330393A2E727
:103460001C68658814686488A5420DD9996800298C
:103470000CD12C9254689A605C60002C08D12D937A
:1034800053609160130001005B687DE74A60F1E7DB
:10349000A360F5E71818634680B21E80B0E7013AD2
:1034A0001033002ACCD1CFE7013C0633002CCCD11D
:1034B000CFE700240A802D68009B2E78009A6433A1
:1034C00002937300D31864331988A4460800029A43
:1034D0001C80B44206D0138899423DD2081880B2AD
:1034E0005B1A138001340232062CF2D16B469988A4
:1034F00000F0ECFB83B20393142300262A7803998F
:103500005A43009B80339B18DA898A18DA81019B21
:10351000B3422FD0839B5B68002B01D000229A60BE
:10352000839A2100536810688393002353606BAB28
:103530001D1DAA4214D100221A7023002FAD2A1D8E
:10354000824212D1FDF745FD00232B70859B013689
:103550000493013B8593DAE7181880B26346C0E70D
:10356000013910330029E3D1E7E7013B2835002B6F
:10357000E5D1EBE70BA8FDF70BFD0298FEF752FF34
:103580000124002800D0D7E50099039B64310B800B
:103590002FA8FDF744FD380087239B009D44F0BD14
:1035A000019B01330193E6E5F0B5B1B007000622B7
:1035B000019108A8002103F01DFA002339000A93A5
:1035C000019A08AB0BA8FEF70FFE019B002B11D14F
:1035D000FB68396A0BA89847079011A8FCF77BFE97
:1035E0000AA8FCF778FE07AA538810881B04184322
:1035F00031B0F0BD3800019B64305B00FB18858959
:10360000059364331B883C000293FEF70BFF029B7B
:103610000600243468089D4201D0E81A80B201F007
:103620000DF9051C300001F009F9291C00F05AFDC4
:10363000011C281C00F0F2FE1422019B051C5A43B9
:103640003B0080339B180F22187B597B10401140A0
:10365000814202D803000800190000231A001E004E
:10366000824201D18B4209D001320136D2B2F6B288
:103670009342F5D201330022DBB2F1E73C4B033336
:10368000985D01F0DBF8291C00F0C8FE049001F001
:103690002FFA384A384B0290039100F0C1FC002801
:1036A0002DD0002235492000FCF72EFD3B0007906D
:1036B00064339E89059BC5B264331B88000CB342FA
:1036C00001D1032D47D0022D15D114213800019BC3
:1036D000803059434018C789264A274B02980399DE
:1036E000760800F09DFC002820D0254B3A003100E0
:1036F0002000FEF75CFE07AB1D7058806DE7FE21D1
:103700000498890500F0C6FC002802D01C4A1D4917
:10371000C9E71D4A1D4B0298039900F081FC00285F
:1037200002D01B4A0021BEE71A4AFBE7FE2104989B
:10373000890500F0AFFC002801D0174BD6E7124AEC
:10374000124B0298039900F06BFC002801D0134B38
:10375000CCE7134BCAE70125CDE7040011A8FCF71D
:10376000BAFD0AA8FCF7B7FD200001F06DFFC046C6
:10377000F86C00089A9999999999E93F3333733F06
:10378000CDCC4C3DCDCC4C3FCDCCCCCCCCCCF43FF7
:103790009A99193F9A99993E9A99193ECDCCCC3E67
:1037A0003333333FF0B50025030004002A008BB00B
:1037B0008E330F000179049391420AD918880028AA
:1037C00004D01879002801D10135EDB2013214334B
:1037D000F2E703953E00039B002B00D1C4E03100CB
:1037E0002000FDF757FC14222300724380339B18FE
:1037F0009A7C07000590002A1CD1DB89002B19D088
:1038000031002000FFF7D0FE039B0790013BC0B2C0
:10381000DBB201380393032800D96CE000F0ECFA26
:10382000020C556871B22000FEF793FD002801D00C
:10383000013DEDB2059ECEE7230070331A881423B4
:10384000200073438030C318DF891B8A71B2D31AFA
:103850009F42E8DD6F1EFFB2039714274F4307AB6B
:10386000C0195B88078A9A18D21BC08992B282421B
:1038700001D90300020014274F43BC4627008037BC
:103880006744801AF881388A490010186118388214
:103890006431088812180A802200398A7032118037
:1038A000200002223900FEF728FDFB89002B00D101
:1038B000039D31002000FDF7EDFB07006679002E27
:1038C00000D087E730000BB0F0BD142321005E4329
:1038D00080318919133B013D8B74032200232000A2
:1038E000EDB2FEF70AFD012DA4D100230393A1E759
:1038F00000236371E2E7FEE7607109A8FCF7EBFCC7
:10390000E0E7049A013514320492AB4223D9049AB9
:103910001788002F02D15288002AF2D0049A167913
:10392000002EEED120006430FEF77CFD14235D43B1
:10393000230080335D193F1806223100EF8107A86C
:1039400003F058F82A0031002000009607AB0996D2
:10395000FFF7ACFAD0E70126B4E7040009A8FCF7AA
:10396000BAFC200001F070FE0126B542AAD12379ED
:10397000039DCAE7F0B5040008000025AFB0009130
:1039800010302100FEF7C7FB02AB1D70A6891CACEE
:10399000AE420BD020006D49FDF7BCFB259AAA4230
:1039A00011D0635D02A94B550135F8E735002000C1
:1039B0006749FDF7AFFB259AAA4204D0635D02A9CF
:1039C0004B550135F8E7002302AA53550023012186
:1039D0001A000AAE7364954205D002AB9B5CB354E7
:1039E0000B000132F7E7002B00D01B950027736C0A
:1039F0005849F7542000FDF781FB1B980AA90918C4
:103A0000019101213B008C462D9A9A4205D0E75C3A
:103A10000199CF5467460133F7E71218002F00D001
:103A20001B9200233100726CB3540098FEF7CEFF56
:103A3000009B20005B680193009BD968019B98471D
:103A40001F9A2378002A09D01A00623A012A48D91D
:103A5000662B00D170E0712B00D172E03E4930003E
:103A6000FDF758FB00231A0013996364914204D0B8
:103A7000B35CA35401230132F8E7002B00D02D9151
:103A800000231900626CA354A0188D4205D002AB2C
:103A90005B5C435401230131F7E7AA18002B00D0E7
:103AA0002D920027636C2D493000E754FDF726FB6B
:103AB0003B002D991B9A601884460AA801909A42EF
:103AC00006D001981F5C6046C75401270133F6E712
:103AD0005218002F00D02D920023626C2100A354B5
:103AE000A3E7622B2FD120001D49FDF707FB210022
:103AF00000240098FEF76AFF009A009B06AD5B6801
:103B0000D168300009942C709847310010222800A9
:103B100003F07BF8099B2100A34204D00A2228006D
:103B200003F048F881B202237180337073883088C3
:103B30001B0418432FB0F0BD0323337000237380A0
:103B4000F4E70423F9E70123F7E7C04636700008DD
:103B50003B70000841700008637000087370000833
:103B60009470000810B50E4C231DDB6F082B04D198
:103B7000200001217030FCF73DFC2100094B703121
:103B80009B8CE26F9BB28B54E26F531C072B00D9C6
:103B9000D31FE3670434E36F0133E36710BDC0460E
:103BA00084000020003801401721314B30B51A68DD
:103BB0008A431A60112219680A431A602D4B2E4954
:103BC0005A680A405A60A022596892030A435A6010
:103BD0008022196852040A431A60802292041968EC
:103BE0001142FCD003215A6808248A435A600222F9
:103BF00059680A435A605A682242FCD080225969A7
:103C000092020A435A6180225969D2020A43012171
:103C1000C0255A61DA6919480A43DA610268AA4381
:103C20000260402205682A438025026042682D0216
:103C3000A2434260124A15608022D20515688D4366
:103C400015601D690D431D611D698D431D610D4B7F
:103C50009362D16253690B435361D3680B43D360C2
:103C600013680B4313604369A343436130BDC046EF
:103C70000020024000100240FFFFC2FF0004004885
:103C800000E100E080BB00000A4B9A88013292B24A
:103C90009A80FA2299889200914204D300229A8055
:103CA0001A6801321A6080220121D20513698B4300
:103CB000136170478400002002780B78002A03D03B
:103CC000013001319A42F7D0D01A704700224308E0
:103CD0008B4274D303098B425FD3030A8B4244D3D4
:103CE000030B8B4228D3030C8B420DD3FF22090216
:103CF00012BA030C8B4202D31212090265D0030BD5
:103D00008B4219D300E0090AC30B8B4201D3CB03CA
:103D1000C01A5241830B8B4201D38B03C01A52410C
:103D2000430B8B4201D34B03C01A5241030B8B420E
:103D300001D30B03C01A5241C30A8B4201D3CB02F9
:103D4000C01A5241830A8B4201D38B02C01A5241DE
:103D5000430A8B4201D34B02C01A5241030A8B42E1
:103D600001D30B02C01A5241CDD2C3098B4201D3F9
:103D7000CB01C01A524183098B4201D38B01C01A77
:103D8000524143098B4201D34B01C01A52410309EE
:103D90008B4201D30B01C01A5241C3088B4201D39D
:103DA000CB00C01A524183088B4201D38B00C01A4A
:103DB000524143088B4201D34B00C01A5241411A71
:103DC00000D20146524110467047FFE701B500207E
:103DD00000F006F802BDC0460029F7D076E770472C
:103DE0007047C04602B47146490849000956490067
:103DF0008E4402BC7047C04602B47146490849006F
:103E0000095C49008E4402BC7047C04603B4714649
:103E1000490840004900095A49008E4403BC7047D4
:103E200003460B437FD4002243088B4274D303091B
:103E30008B425FD3030A8B4244D3030B8B4228D3BC
:103E4000030C8B420DD3FF22090212BA030C8B42E2
:103E500002D31212090265D0030B8B4219D300E082
:103E6000090AC30B8B4201D3CB03C01A5241830B07
:103E70008B4201D38B03C01A5241430B8B4201D3B7
:103E80004B03C01A5241030B8B4201D30B03C01AE0
:103E90005241C30A8B4201D3CB02C01A5241830A5A
:103EA0008B4201D38B02C01A5241430A8B4201D389
:103EB0004B02C01A5241030A8B4201D30B02C01AB3
:103EC0005241CDD2C3098B4201D3CB01C01A52411A
:103ED00083098B4201D38B01C01A524143098B42A3
:103EE00001D34B01C01A524103098B4201D30B018C
:103EF000C01A5241C3088B4201D3CB00C01A5241B1
:103F000083088B4201D38B00C01A524143088B4275
:103F100001D34B00C01A5241411A00D2014652410E
:103F2000104670475DE0CA0F00D04942031000D32D
:103F30004042534000229C4603098B422DD3030A82
:103F40008B4212D3FC22890112BA030A8B420CD392
:103F5000890192118B4208D3890192118B4204D3BB
:103F600089013AD0921100E08909C3098B4201D33B
:103F7000CB01C01A524183098B4201D38B01C01A75
:103F8000524143098B4201D34B01C01A52410309EC
:103F90008B4201D30B01C01A5241C3088B4201D39B
:103FA000CB00C01A524183088B4201D38B00C01A48
:103FB0005241D9D243088B4201D34B00C01A52411F
:103FC000411A00D20146634652415B10104601D3AC
:103FD0004042002B00D54942704763465B1000D336
:103FE000404201B50020FFF7FBFE02BD0029F8D0DA
:103FF00016E770478446101C62468C46191C6346BF
:1040000000E0C0461FB500F003FD002801D40021E8
:10401000C8421FBD10B500F04DFC4042013010BD3C
:1040200010B500F0F5FC002801DB002010BD0120D8
:1040300010BDC04610B500F0EBFC002801DD0020EB
:1040400010BD012010BDC04610B500F06FFC002867
:1040500001DC002010BD012010BDC04610B500F0ED
:1040600065FC002801DA002010BD012010BDC0460B
:104070008446081C6146FFE71FB500F04FFB00288F
:1040800001D40021C8421FBD10B500F0D3FA404250
:10409000013010BD10B500F041FB002801DB00200D
:1040A00010BD012010BDC04610B500F037FB002840
:1040B00001DD002010BD012010BDC04610B500F08C
:1040C000E1FA002801DC002010BD012010BDC0462F
:1040D00010B500F0D7FA002801DA002010BD012049
:1040E00010BDC046F0B54646D6464F464D02420288
:1040F000C0B5520A6E0A4700B0463F0E4E00C40FCC
:10410000D00094463B008246360EC90FAD098C4262
:104110006DD0B81B814600284DDD002E00D188E00F
:10412000FF2F5AD08023DB041D434B4601221B2B5B
:104130000ADC2B004A464946D3402022521A9540B9
:104140002A00551EAA411A4353469A1A530100D415
:10415000B9E092019609300001F016FE053886405C
:10416000874200DDD4E03300C71B20200137FB402D
:10417000C71BBE403200561EB24100271A435307E8
:1041800004D00F231340042B00D00432530100D479
:104190009CE07B1CFE2F00D19AE09201520A9446CB
:1041A000DBB2D8056346E40718432043E0BCBA46B7
:1041B000B146A846F0BD002849D0F31B002F00D01F
:1041C000B6E05246002A60D0013B002B00D1FCE053
:1041D000FF2E00D0B4E00C004246002A78D08020A8
:1041E000C00310434202530A9C46FF23D9E7B91B80
:1041F000002971DD002E3FD0FF2FEED08023DB049D
:104200001D4301221B2907DC2A002023CA40591A1A
:104210008D406B1E9D412A435244530153D50137B3
:10422000FF2F55D001237B49134052080A401A43FF
:10423000A5E7002D2CD001235B429C46E1444B4670
:10424000002B00D1ADE0FF2F00D06EE7C5E7FE20C8
:104250007E1C304260D1002F00D093E05246002AED
:1042600000D1B6E0002D9CD0521B500100D4C3E019
:1042700053460C00EA1A82E7002D09D001390029C3
:1042800000D18BE0FF2FBCD1A7E70C0042463700DE
:10429000FF2FA2D05202530A9C46FBB281E7FE21B7
:1042A0000137394265D1002B7ED1002800D1AAE028
:1042B000002D00D175E72A0052440027530102D592
:1042C000554B01371A40530700D05AE7D208DFE7B1
:1042D0000022FF23944664E70029E0D0F31B002F5F
:1042E0003ED0FF2E00D177E780220100D204114397
:1042F0008A4601221B2B08DC524620215046DA4018
:10430000CB1A9840431E984102433700521984E764
:10431000414A3F1A324032E753465E1B73012DD4A7
:10432000002E00D017E7002200240023944638E72F
:10433000FF2E00D14FE780225046D2041043824620
:1043400001221B2B08DC524620245046DA40E31A97
:104350009840431E984102430C003700AA1AF5E624
:10436000002893D0013B002B4FD0FF2EC1D14246F5
:1043700033E7FF2FACD055446A08A4E753460C003E
:10438000EE1AE8E65346002B28D1002D00D022E794
:104390008023DB039C460024FF2302E72A005244CB
:1043A0003BE753465A1BD1E6002800D114E7002D05
:1043B00000D112E78023DB031A4200D10DE741460A
:1043C000194200D009E7424607E70C003700AA1A55
:1043D000BCE6002D13D00C00C446E2E6002D00D14F
:1043E000FBE68023DB031A4200D1F6E64046184282
:1043F00000D0F2E60C00EFE6002A00D063E70022CE
:1044000000249446CDE6C446CBE62A003700524449
:1044100003E7C046FFFFFF7DFFFFFFFBF0B54F4600
:104420004646D6464502C0B547000C1C6D0A3F0EF5
:10443000C60F002F66D0FF2F6CD00023EA00802526
:1044400099469A46ED0415437F3F60026100430A96
:104450009846090EE40F002948D0FF2910D0802289
:10446000D800D2040243904600207F394A463300E8
:104470007F1A02436C4992008A586340DBB2974628
:10448000002B6DD10220FF3F33E000239846260029
:10449000454682465346022B00D17FE0032B00D1D4
:1044A00094E0012B17D038007F3000285FDD6B07C8
:1044B00004D00F232B40042B00D004352B0103D54F
:1044C00038005A4B80301D40FE2867DCAD016D0A74
:1044D000C0B202E01E0000200025C0052843F607F8
:1044E0003043E0BCBA46B146A846F0BD002B2BD104
:1044F00001204A4633004E49024392008A586340E5
:10450000DBB29746002D13D104239946033B0027C5
:104510009A469AE7002D05D108239946063BFF27C6
:104520009A4692E70C239946093BFF279A468CE767
:10453000280001F029FC7627431F9D4000237F427D
:1045400099469A463F1A80E7180001F01DFC424642
:10455000431F76219A404942091A9046002085E778
:10456000FF21032082E71E00FF200025B5E701237D
:104570001B1A1B2BAFDC9E372900BD40D9406A1E99
:1045800095410D436B0704D00F232B40042B00D023
:1045900004356B0144D5012000259EE7FF2000254E
:1045A0009BE780250026FF20ED0396E70023984631
:1045B0008020C003054209D04346034206D1454648
:1045C00005436D022600FF206D0A86E78020C003A8
:1045D00005436D02FF206D0A7FE741466A014801ED
:1045E000824219D21B210025013F012614006D00D3
:1045F0005200002C01DB904201D8121A35430139D8
:104600000029F3D1501E824138007F301E0015432F
:10461000002800DD4BE7AAE71A210125121AE4E77A
:10462000AD0100206D0A58E7806D0008FFFFFFF71D
:10463000C06D000870B542004E024C0045026D0A84
:10464000120EC30F760A240EC90FFF2A0FD0FF2CBB
:1046500011D00120A24200D070BDB542FCD18B42E6
:104660000DD0002AF8D12800451EA841F4E701200A
:10467000002DF1D1EBE70120002EEDD1E9E700207C
:10468000EAE7C046F0B5420046024D024C00C30FB7
:10469000760A120E6D0A240EC80FFF2A1FD0FF2CB7
:1046A00010D0002A1FD171427141002C01D1002D80
:1046B0001ED000290ED183421ED00221581E084070
:1046C0000138F0BD002D26D1002AF4D1714271418C
:1046D0000029F0D00028F4D101204042F1E7002E5B
:1046E00019D1FF2CEED0002CE5D1002DE3D1E4E769
:1046F0000020002EE5D0E0E7A24205DCEADBAE4276
:1047000002D8E7D30020DCE7414241414842022180
:1047100008400138D5E702204042D2E7F0B5420018
:1047200046024D024C00C30F760A120E6D0A240E8B
:10473000C80FFF2A0DD0FF2C0FD0002A23D17142C1
:104740007141002C0FD1002D0DD10020002E14D06E
:104750000DE0002E10D1FF2C15D1002D0CD1002A18
:1047600003D171427141002908D1834210D0022146
:10477000581E0840013800E00220F0BD0028FCD19E
:1047800001204042F9E7002CEFD1002DEDD1EEE7FA
:10479000A24205DCF2DBAE4202D8EFD30020ECE708
:1047A000414241414842022108400138E5E7C04604
:1047B00070B5002813D0C317C5185D40C40F28007A
:1047C00001F0E2FA9E2301001B1A962B0FDC082849
:1047D00001DD08398D406D026D0AD8B202E0002477
:1047E00000200025C0052843E407204370BD992B15
:1047F0000BDD05222E00121AD64002001B32954016
:104800002800451EA84135000543052901DD4A1F42
:1048100095402A00084E3240680709D00F202840F2
:10482000042805D00432500102D59F2332405B1A80
:104830009201550AD8B2D5E7FFFFFFFB70B5051E00
:104840000ED001F0A1FA9E2304001B1A962B0CDC5B
:10485000082801DD083CA5406D026D0AD8B201E0D0
:1048600000200025C005284370BD992B09DD0200FA
:1048700029001B3291404A1E91410522121AD5404F
:104880000D43052C01DD621F95402900084E314083
:104890006A0709D00F202840042805D004314A01B6
:1048A00002D59F2331401B1B89014D0AD8B2D9E79D
:1048B000FFFFFFFBF0B54F464646D646944691466D
:1048C0001A03120B184DC0B54C000F0392465A0044
:1048D000060080463F0B0120640DC90F520DDB0F0F
:1048E000AC420AD0AA4203D0944201D157450DD020
:1048F000E0BCBA46B146A846F0BD3D003543F7D10D
:10490000A242F5D1524665462A43F1D10120C8455D
:10491000EED1994206D0002CEAD13E433000461E2B
:10492000B041E5E70020E3E7FF070000F0B54E46A1
:1049300045465746DE4604001800E0B516001B0346
:104940001B0B324D0F034A0099464300A446B04664
:104950003F0B520DC90F5B0DC00FAA4229D0AB42CD
:1049600018D0002A2AD13C43A34665426541002B5A
:1049700002D14C46264327D0002D15D1814228D0A4
:104980000220013908400138F0BCBB46B246A946B6
:10499000A046F0BD4D462E432FD1002AEED13C4318
:1049A00065426541002DE9D00028EDD1012040424B
:1049B000EAE73D00254320D19342EBD0002BDDD127
:1049C0004C462643DAD1DBE75B460020002BDBD0E8
:1049D000D6E79A420ADCE7DB4F45D1D810D0002059
:1049E0004F45D1D20029E1D00800CDE743425841DC
:1049F0000223404218400138C6E702204042C3E784
:104A0000C445BDD80020C445BED2EBE7FF07000077
:104A1000F0B54E4645465746DE4604001800E0B560
:104A200016001B031B0B314D0F034A009946430030
:104A3000A446B0463F0B520DC90F5B0DC00FAA42F2
:104A400011D0AB4214D0002A2FD13C43A34665427B
:104A50006541002B14D14C46264311D15B46002002
:104A6000002B17D010E03D00254312D193421CD1FA
:104A70004D462E430DD1002A04D13C436542654189
:104A8000002D0DD1814216D0022001390840013895
:104A900000E00220F0BCBB46B246A946A046F0BDED
:104AA0000028F7D101204042F4E7002BEAD14C4620
:104AB0002643E7D1E8E79A4206DD43425841022304
:104AC000404218400138E5E79A42E9DB4F45DBD820
:104AD00006D000204F45DDD20029E3D00800D9E7F9
:104AE000C445D1D80020C445D4D2F5E7FF07000063
:104AF00070B543004602C40FFE201B0E591C750AF8
:104B000008420CD0E022920094466D07360B6344B5
:104B10001B053343E40723432800190070BD002B15
:104B200014D1002D1BD0280001F02EF90A281CDC1E
:104B30000B232A001B1ADA40030015339D400E4B4D
:104B400012031B1A5B05160B5B0DE1E7002D09D064
:104B5000320B80263603094B6D071643D8E7002336
:104B60000026D5E70026054BD2E703002A000B3BC1
:104B70009A400025E3E7C04689030000FF070000D4
:104B800003685A0004D5802212061343C0187047E8
:104B90005B005B08FAE7C046F8B557464546DE4677
:104BA0004E469046E0B50700002924D04B1E9A4699
:104BB000994600239B465B464B44DC0FE418641087
:104BC000E5007E193000FFF7DBFFA2450CD0404521
:104BD0000CD8280008303818FFF7D2FF01384045BC
:104BE0000AD2631C9B46E6E7404505D9A34502D09F
:104BF000631E9946DFE700263000F0BCBB46B24694
:104C0000A946A046F8BDC0460300012805D00228E9
:104C100007D00020002B02D070470348FCE7034870
:104C2000FAE70348F8E7C046315300082553000867
:104C30003D53000830B5234B050083B08C1E002B7C
:104C400026D0200001A900E000BF00281CD0019957
:104C50002200FFF7A1FF041E16D0FFF791FF636843
:104C6000A864012B2AD0201D002B23DBFFF788FF2F
:104C70000023E8642B650368002B0FDBFFF780FF40
:104C80002861002003B030BD002309202B61F9E723
:104C90000D480E49091AC9100191D9E71801000FF2
:104CA000FFF7B2FF2861431E984108234042984312
:104CB0000930E7E70123E8642B65DCE700230520E2
:104CC0002B61DFE700000000707300081875000812
:104CD000036810B50400DA0705D49B070AD54830ED
:104CE00000F08AFC23685A070AD51A070FD5DB069D
:104CF00015D510BD483000F07BFC23685A07F4D46A
:104D00002000D03000F07CFC23681A07EFD420008C
:104D10005130FF3000F078FC2368DB06E9D4200036
:104D2000D130FF3000F074FCE3E7C04603000068B8
:104D3000002800D0C0187047092070477047C0464F
:104D400070B504000D002000296CFFF773FF0028E8
:104D500011D12B6C2A00636121000120236998473F
:104D60000828F0D0072806D10020296CFFF7E6FFBD
:104D7000281D00F027FC01F041FFC046F0B5CE46EB
:104D8000474680B5C368304C9846A5448369040003
:104D900016000431402205A8994601F036FF002391
:104DA000049325E0F022149B5200636104A97CA8BF
:104DB000039301F02AFF2100280023697CAA984769
:104DC0008A9B0500039315934B46019304AB009314
:104DD0002200230031000120C047002822D1F02208
:104DE0007CA9520004A801F010FF0026082D22D152
:104DF000149B200019000393FFF71CFF09360700DE
:104E0000F5B20028CED0129B1021039315934B4688
:104E1000019304AB00932200230001202943C047E3
:104E2000002800D009273800F5239B009D44C0BC12
:104E3000B946B046F0BD072DF4D130001499FFF704
:104E40007DFF05A800F0BEFB2CFCFFFF406C704707
:104E500070B5CB6BFAB00B6405000E004022043134
:104E600003A801F0D2FE01235B42029306E0290071
:104E70002B6902AA9847040008280AD1129B28002F
:104E800019000193FFF7D6FE0028F0D009207AB070
:104E900070BD02A8FFF71CFF062CF7D131002800D7
:104EA000FFF74EFF10B58261DA6BC1601A6419001A
:104EB0000022FFF763FF10BD436970B50B64C36840
:104EC00004000D00002B13D10A0023690100022009
:104ED0009847072805D008280FD129002000FFF7A0
:104EE0002FFF0020296CFFF729FF281D00F06AFB27
:104EF0000122FFF743FF01F081FE01F07FFEC04673
:104F0000C36810B5002B05D0CB6B00220B64FFF7F4
:104F100035FF10BDFFF79CFFFBE7C0467047C0465A
:104F20008368010010B5002B01D00120984710BD07
:104F3000012915D00AD8002B10D10F2A0ED89200C3
:104F400082185268009B00201A6006E00120033995
:104F5000C9B2884280414042013070470220FCE7DC
:104F60000120FAE700B585B003AB0A0000930021E9
:104F70000023FFF7DDFF039805B000BD012915D020
:104F80000AD8002B10D10F2A0ED8009B92001B6864
:104F900082185360002006E001200339C9B288421C
:104FA00080414042013070470220FCE70120FAE7CF
:104FB00000B585B003AB039200930A0000230021E3
:104FC000FFF7DCFF05B000BD70B51A4CD36BA544EC
:104FD000136405000C0019A8111D402201F015FEF4
:104FE00001235B42189314E00C2118A802AAFFF7D2
:104FF000DFFF210018A8A847002812D1069B18AA95
:1050000002A9083001939847060005280AD009280C
:1050100007D0289B02A819000193FFF70BFE002878
:10502000E2D0092618A8FFF753FE300090239B001A
:105030009D4470BDC0FDFFFFF0B557469246032268
:1050400045464E46DE4699461300E0B58846CD6C8F
:10505000494689B00340009308CD0695002900D148
:1050600080E01A0C1B040593022304A90B73FD3383
:1050700013409B004A73ED18009B022B01D143465D
:105080009D6B43461B6DDB070FD5504605A900F00D
:1050900065FB002801D1082000E0092009B0F0BC20
:1050A000BB46B246A946A046F0BD2F68002FECD003
:1050B00008230340029300230193013354469B4687
:1050C0004646BA464B46022B49D02B886F889A46F3
:1050D00004355B4638009843B36C0F2198468044F2
:1050E0002000FFF73FFF0023804506D853465A466D
:1050F0009343434498429B415B4202227F00174006
:10510000594652460A401743012F30D0022F4CD047
:10511000002FC2D1009A002A02D0002B00D09BE0C1
:1051200004352B689A46002BCCD1200005A9A24655
:1051300000F014FB0028B0D1019B002BABD00F2155
:105140005046FFF70FFF0E2102005046FFF730FFD9
:1051500050460F21724AFFF72BFF07209EE76F682A
:105160000835B6E71B02059304AB9A8184E7009AE1
:10517000002A49D1002B16D02B68DF0F6B689A1CD0
:1051800000D18AE7320058320492013300D1B6E0F0
:10519000281DFFF7CBFD3A00010004AB300000E012
:1051A00000BF00286CD10835BBE72A68009957007A
:1051B0007F0800290DD1002B04D0029B002B72D058
:1051C000002F3CD0002A00DA04350137BF00ED196A
:1051D000A7E7336A0D2120009846FFF7C3FE8045FC
:1051E00001D02A68EEE7B36A9D42FAD10023F36248
:1051F000043333632B1DB76273632B68002B00DA13
:1052000087E001230193E0E70D212000376AFFF7D3
:10521000A9FE8742C7D1B36A9D42C4D1B046A24617
:105220002800FFF7ADFC0F2102005046FFF7C0FE3B
:10523000504642460021FFF7BBFE07202EE7B0464E
:10524000A2460D215046FFF78DFE4346049A186290
:105250005A6206209D6221E72800FFF791FC043581
:10526000A246B5630400300000E000BF002800D172
:1052700013E7504622000F21FFF79AFE07200DE7A3
:10528000A2460D2104005046FFF76CFEB0463300E5
:105290003062022C39D1049A2C33F2627362434695
:1052A00006209D62FAE62B1D9A4600239846583345
:1052B0009C4621004A46B4445446A9468A463D00CD
:1052C00003924746E0460EE0434620000493FFF772
:1052D0002DFD0022010004AB300000E000BF0137CB
:1052E0000434002804D1AF42EED14D46B046A8E7C1
:1052F0002F004D46039B544699462A6862E70D21CC
:105300002000FFF72FFEB04630624346049A5A62EF
:10531000C5E7781C8000B046A246281881E7C04641
:105320000000000010B50023FFF786FE10BDC04648
:1053300010B50123FFF780FE10BDC04610B5022353
:10534000FFF77AFE10BDC046F0B5CE46474680B5A1
:10535000050014001E00C3B0032970D04DD80029E9
:1053600000D174E001296CD1130C14049846240C6C
:10537000012E00D1A8E0052E63D11B19202B60D887
:1053800042460F2A00D8C0E0A146002C00D0D1E050
:10539000AA6B20AF002C2ED0002399464346DB0099
:1053A000FF180023E400D158F95004339C42FAD18D
:1053B0004B461219002B10D06F464046102800D2E1
:1053C00010204B46D90000231038C0003818D4589C
:1053D000C45004339942FAD15218012E00D1CFE0C3
:1053E0004346AA630F2B00D8CCE04B46002B02D0DB
:1053F000684600F005F9002024E0042921D1002BA3
:105400001FD1102A1DD8102203681A4200D0A9E02B
:1054100020AF380000F0FEF800230120AA6B010045
:1054200099400C4202D040CA99007E500133042BAF
:10543000F5D13800AA6300F0EBF8002002E0032B5E
:105440001FD0022043B0C0BCB946B046F0BD002B0F
:10545000F7D101218846291D00238C461004AA6B30
:10546000000C41469940084203D0664680CA990024
:1054700077500133102BF4D10020A304E2D4AA63A7
:10548000E0E71404160C240C3319102BD9D8082289
:1054900003681A426DD120AF380000F0B7F8F6006B
:1054A000AB6B002C0AD0F61AE400321F1C19BA1894
:1054B0001900096804339950A342F9D13800AB634D
:1054C00000F0A2F80020BDE71B19102BB9D8434605
:1054D0000F2BB6D82B681E4206D003222800934318
:1054E0002B60483000F086F820AF380000F082F8DA
:1054F0000023AA6B9946002C00D04FE704323800F5
:10550000AA6300F075F800209CE7102B45D9102203
:1055100052429146994401222B681A4207D0934384
:105520000222280013432B60483000F067F84B46F6
:10553000002B35D004222B681A4227D143460F2B6B
:1055400003D820AF380000F059F86F46380000F05B
:1055500059F810244346AA6BE41A002C00DC2CE70F
:1055600020AF1BE793430360D130FF3000F052F8C7
:105570004EE7934303605130FF3000F047F88AE76D
:1055800020AFBBE720A800F037F82EE728009343B0
:105590002B60D03000F036F8D0E700239946BAE708
:1055A00043460F2B00D9F3E620AF380000F026F871
:1055B000AA6B002C00D0EFE6380000F01DF80020A8
:1055C00040E7C046011C343138C9043B9C461D608D
:1055D000A646011C20313CC990469946A246AB46DE
:1055E000011C0831FCC941680068E54600BDC046A1
:1055F0007047C0467047C0467047C0467047C046B7
:105600007047C0467047C0467047C0467047C046A6
:105610007047C0467047C04601B401A801B585B0C7
:10562000FFB408A841464A4653465C4665463EC01C
:1056300001A83EC80F98009000230CB401A9FFF701
:1056400007FC109B12B0184701B401A801B585B042
:10565000FFB408A841464A4653465C4665463EC0EC
:1056600001A83EC80F98009000230CB401A9FFF7D1
:1056700023FC109B12B0184701B401A801B585B0F6
:10568000FFB408A841464A4653465C4665463EC0BC
:1056900001A83EC80F98009000230CB401A9FFF7A1
:1056A0002FFC109B12B0184701B401A801B585B0BA
:1056B000FFB408A841464A4653465C4665463EC08C
:1056C00001A83EC80F98009000230CB401ABFFF76F
:1056D000E9FB109B12B0184701B401A801B585B0D1
:1056E000FFB408A841464A4653465C4665463EC05C
:1056F00001A83EC80F98009000230CB401AAFFF740
:1057000063FC109B12B01847027A0300002A0BD1E9
:10571000427A002A0FD0013A42724268111D41605C
:1057200003211268017202E0013A02720268100E4F
:1057300012021A607047B020FCE7C04600B585B081
:1057400003AB00930C2200230021FFF7F1FB039829
:1057500005B000BD10B5FFF7F1FF10BDF0B54E4626
:1057600045465746DE460023E0B587B003930F3326
:105770009846083B994680231B0305000E009A4675
:105780003000FFF7C1FF0400B02800D1C1E00306DC
:1057900029D5030042469343DBB2802B53D0902B94
:1057A0003DD0A02B6BD0B02B00D17EE0C02B00D120
:1057B00095E003004A469343DBB2D02B0AD153460F
:1057C000024001321A43052301212800FFF7BCFDE6
:1057D0000028D5D00924200007B0F0BCBB46B24653
:1057E000A946A046F0BDFF23820013401F1D05AB54
:1057F0009B4600930D22002300212800FFF798FB11
:10580000630639D4059B9C4667445B460597009325
:1058100000230D2200212800FFF7B0FBB0E7833BF7
:1058200003400D2BD6D005AF0240002300212800F5
:105830000097FFF77DFB00230D2200212800009731
:10584000FFF79CFB9CE704023000FFF75DFF802719
:1058500020433F02B842BDD004010005020C0023E2
:1058600000212800FFF770FD0028B3D13C4200D191
:1058700086E70123039383E7059BDF1BC5E7FF232F
:105880004A461B011900824311410A001A400307CE
:1058900002D58023DB011A43002300212800FFF7F3
:1058A00053FD002800D16BE794E7B12845D0B2281A
:1058B00000D19FE0B32855D0FC230340B42B00D186
:1058C00088E74A465346024001321A430121012328
:1058D0002800FFF739FD002800D151E77AE7C628F4
:1058E0004BD0C7285DD003004A469343DBB2C02BA0
:1058F0006CD0C82871D0C92800D06BE73000FFF702
:1059000003FFF02302031B0313404246024001320F
:1059100058E7039B0024002B00D05CE705AE0E2265
:10592000002128000096FFF703FB00230F2200212F
:1059300028000096FFF722FB4DE73000FFF7E4FE5A
:10594000021E00D146E7030041468B43DBB2002B29
:1059500000D03FE700212800FFF7F6FC002800D127
:105960000EE737E73000FFF7CFFEF02302031B03FB
:105970001340424602400132A7E73000FFF7C4FE61
:10598000F02302031B0313404246024001321A4334
:10599000032303212800FFF7D7FC002800D1EFE6FE
:1059A00018E73000FFF7B0FE021E00D112E7030037
:1059B00041468B43DBB2002B00D00BE704212800CB
:1059C000FFF7C2FC002800D1DAE603E74346A02235
:1059D0001C40013412032243DAE73000FFF794FE43
:1059E000434602009A43D2B21032184012030130EB
:1059F0000243E8E605AB00939B460D2200230021FD
:105A00002800FFF795FA3000FFF77EFE03061AD54F
:105A10007F27B03C059B3840A0409C4660440590E1
:105A200030000734FFF770FE0306F3D481217F2393
:105A300089008C460340A340059A62449B18059355
:105A40005B460093E4E60224F0E7C046030000B59D
:105A5000DB6C85B05A680800120201921A00083205
:105A60006946029203220A73DB794B7301A9FFF79F
:105A700075FE05B000BDC04610B5FFF76BFE806C2B
:105A800010BDC04610B5FFF765FEC36CD879023073
:105A90008000181810BDC04670B5002500247F2670
:105AA0003200037801301A40A2405BB2154307343C
:105AB000002BF5DB0D6070BD70B5002200267F2540
:105AC0002B0004780130234093401E4363B2073219
:105AD000002BF5DB1F2A05D8630603D5012393406D
